{
  "contractName": "IPFS",
  "abi": [
    {
      "constant": true,
      "inputs": [],
      "name": "ipfsHash",
      "outputs": [
        {
          "name": "",
          "type": "string"
        }
      ],
      "payable": false,
      "stateMutability": "view",
      "type": "function",
      "signature": "0xc623674f"
    },
    {
      "constant": false,
      "inputs": [
        {
          "name": "x",
          "type": "string"
        }
      ],
      "name": "sendHash",
      "outputs": [],
      "payable": false,
      "stateMutability": "nonpayable",
      "type": "function",
      "signature": "0xdfb29935"
    },
    {
      "constant": true,
      "inputs": [],
      "name": "getHash",
      "outputs": [
        {
          "name": "x",
          "type": "string"
        }
      ],
      "payable": false,
      "stateMutability": "view",
      "type": "function",
      "signature": "0xd13319c4"
    }
  ],
  "bytecode": "0x608060405234801561001057600080fd5b506103af806100206000396000f3fe6080604052600436106100565763ffffffff7c0100000000000000000000000000000000000000000000000000000000600035041663c623674f811461005b578063d13319c4146100e5578063dfb29935146100fa575b600080fd5b34801561006757600080fd5b506100706101af565b6040805160208082528351818301528351919283929083019185019080838360005b838110156100aa578181015183820152602001610092565b50505050905090810190601f1680156100d75780820380516001836020036101000a031916815260200191505b509250505060405180910390f35b3480156100f157600080fd5b5061007061023d565b34801561010657600080fd5b506101ad6004803603602081101561011d57600080fd5b81019060208101813564010000000081111561013857600080fd5b82018360208201111561014a57600080fd5b8035906020019184600183028401116401000000008311171561016c57600080fd5b91908080601f0160208091040260200160405190810160405280939291908181526020018383808284376000920191909152509295506102d4945050505050565b005b6000805460408051602060026001851615610100026000190190941693909304601f810184900484028201840190925281815292918301828280156102355780601f1061020a57610100808354040283529160200191610235565b820191906000526020600020905b81548152906001019060200180831161021857829003601f168201915b505050505081565b60008054604080516020601f60026000196101006001881615020190951694909404938401819004810282018101909252828152606093909290918301828280156102c95780601f1061029e576101008083540402835291602001916102c9565b820191906000526020600020905b8154815290600101906020018083116102ac57829003601f168201915b505050505090505b90565b80516102e79060009060208401906102eb565b5050565b828054600181600116156101000203166002900490600052602060002090601f016020900481019282601f1061032c57805160ff1916838001178555610359565b82800160010185558215610359579182015b8281111561035957825182559160200191906001019061033e565b50610365929150610369565b5090565b6102d191905b80821115610365576000815560010161036f56fea165627a7a72305820b0da4bf0c68cd3011ee3507db384431044447e38ef8e990d5aaea6383b2d3ed90029",
  "source": "pragma solidity ^0.5.0;\ncontract IPFS \n{\n    string public ipfsHash;\n \n    function sendHash(string memory x) public \n    {\n        ipfsHash = x;\n    }\n\n    function getHash() public view returns (string memory x) \n    {\n        return ipfsHash;\n    }\n}",
  "sourcePath": "/Users/christianjohnston/Desktop/Next/contracts/IPFS.sol",
  "compiler": {
    "name": "solc",
    "version": "0.5.0+commit.1d4f565a.Emscripten.clang"
  },
  "schemaVersion": "3.0.1",
  "updatedAt": "2019-04-30T10:28:17.440Z",
  "devdoc": {
    "methods": {}
  },
  "userdoc": {
    "methods": {}
  }
}