{
  "contractName": "LoggedIn",
  "abi": [
    {
      "constant": true,
      "inputs": [],
      "name": "_address",
      "outputs": [
        {
          "name": "",
          "type": "address"
        }
      ],
      "payable": false,
      "stateMutability": "view",
      "type": "function",
      "signature": "0x18bad217"
    },
    {
      "constant": false,
      "inputs": [
        {
          "name": "__address",
          "type": "address"
        }
      ],
      "name": "setAddress",
      "outputs": [],
      "payable": false,
      "stateMutability": "nonpayable",
      "type": "function",
      "signature": "0xe30081a0"
    },
    {
      "constant": true,
      "inputs": [],
      "name": "getAddress",
      "outputs": [
        {
          "name": "",
          "type": "address"
        }
      ],
      "payable": false,
      "stateMutability": "view",
      "type": "function",
      "signature": "0x38cc4831"
    }
  ],
  "bytecode": "0x608060405234801561001057600080fd5b50610190806100206000396000f3fe6080604052600436106100565763ffffffff7c010000000000000000000000000000000000000000000000000000000060003504166318bad217811461005b57806338cc483114610099578063e30081a0146100ae575b600080fd5b34801561006757600080fd5b506100706100f0565b6040805173ffffffffffffffffffffffffffffffffffffffff9092168252519081900360200190f35b3480156100a557600080fd5b5061007061010c565b3480156100ba57600080fd5b506100ee600480360360208110156100d157600080fd5b503573ffffffffffffffffffffffffffffffffffffffff16610128565b005b60005473ffffffffffffffffffffffffffffffffffffffff1681565b60005473ffffffffffffffffffffffffffffffffffffffff1690565b6000805473ffffffffffffffffffffffffffffffffffffffff191673ffffffffffffffffffffffffffffffffffffffff9290921691909117905556fea165627a7a72305820a3a6ff30157f7b23bcf6d7199e9c6746114077b8b211cfeb74bc108c3f5d912f0029",
  "source": "pragma solidity ^0.5.0;\ncontract LoggedIn {\n\n    address public _address;\n\n    function setAddress(address __address) public\n    {\n        _address = __address;\n    }\n\n    function getAddress() public view returns (address) \n    {\n        return _address;\n    }\n}",
  "sourcePath": "/Users/christianjohnston/Desktop/Next/contracts/LoggedIn.sol",
  "compiler": {
    "name": "solc",
    "version": "0.5.0+commit.1d4f565a.Emscripten.clang"
  },
  "schemaVersion": "3.0.1",
  "updatedAt": "2019-04-30T10:28:17.443Z",
  "devdoc": {
    "methods": {}
  },
  "userdoc": {
    "methods": {}
  }
}