{
  "contractName": "Sellers",
  "abi": [
    {
      "constant": true,
      "inputs": [],
      "name": "specialisation",
      "outputs": [
        {
          "name": "",
          "type": "string"
        }
      ],
      "payable": false,
      "stateMutability": "view",
      "type": "function",
      "signature": "0x35e521f3"
    },
    {
      "constant": true,
      "inputs": [],
      "name": "maxPricePerHour",
      "outputs": [
        {
          "name": "",
          "type": "int256"
        }
      ],
      "payable": false,
      "stateMutability": "view",
      "type": "function",
      "signature": "0x820879a3"
    },
    {
      "constant": true,
      "inputs": [
        {
          "name": "",
          "type": "address"
        }
      ],
      "name": "userParams",
      "outputs": [
        {
          "name": "minAge",
          "type": "int256"
        },
        {
          "name": "minNumInteractions",
          "type": "int256"
        },
        {
          "name": "minNumPurchases",
          "type": "int256"
        },
        {
          "name": "minScore",
          "type": "int256"
        },
        {
          "name": "emailProvided",
          "type": "bool"
        },
        {
          "name": "set",
          "type": "bool"
        }
      ],
      "payable": false,
      "stateMutability": "view",
      "type": "function",
      "signature": "0x8794e115"
    },
    {
      "constant": true,
      "inputs": [
        {
          "name": "",
          "type": "address"
        }
      ],
      "name": "users",
      "outputs": [
        {
          "name": "name",
          "type": "string"
        },
        {
          "name": "companyName",
          "type": "string"
        },
        {
          "name": "numYearsExperience",
          "type": "int256"
        },
        {
          "name": "pricePerHour",
          "type": "int256"
        },
        {
          "name": "specialisation",
          "type": "string"
        },
        {
          "name": "summary",
          "type": "string"
        },
        {
          "name": "numAdsViewed",
          "type": "int256"
        },
        {
          "name": "numAdsPurchased",
          "type": "int256"
        },
        {
          "name": "set",
          "type": "bool"
        }
      ],
      "payable": false,
      "stateMutability": "view",
      "type": "function",
      "signature": "0xa87430ba"
    },
    {
      "constant": true,
      "inputs": [],
      "name": "minYearsExperience",
      "outputs": [
        {
          "name": "",
          "type": "int256"
        }
      ],
      "payable": false,
      "stateMutability": "view",
      "type": "function",
      "signature": "0xb42dde32"
    },
    {
      "constant": true,
      "inputs": [
        {
          "name": "",
          "type": "address"
        }
      ],
      "name": "usersExtra",
      "outputs": [
        {
          "name": "website",
          "type": "string"
        },
        {
          "name": "photo",
          "type": "string"
        }
      ],
      "payable": false,
      "stateMutability": "view",
      "type": "function",
      "signature": "0xd7fc7284"
    },
    {
      "constant": true,
      "inputs": [],
      "name": "message",
      "outputs": [
        {
          "name": "",
          "type": "string"
        }
      ],
      "payable": false,
      "stateMutability": "view",
      "type": "function",
      "signature": "0xe21f37ce"
    },
    {
      "inputs": [
        {
          "name": "_f",
          "type": "address"
        }
      ],
      "payable": false,
      "stateMutability": "nonpayable",
      "type": "constructor",
      "signature": "constructor"
    },
    {
      "constant": false,
      "inputs": [
        {
          "name": "_message",
          "type": "string"
        }
      ],
      "name": "setMessage",
      "outputs": [],
      "payable": false,
      "stateMutability": "nonpayable",
      "type": "function",
      "signature": "0x368b8772"
    },
    {
      "constant": true,
      "inputs": [],
      "name": "getMessage",
      "outputs": [
        {
          "name": "",
          "type": "string"
        }
      ],
      "payable": false,
      "stateMutability": "view",
      "type": "function",
      "signature": "0xce6d41de"
    },
    {
      "constant": false,
      "inputs": [
        {
          "name": "_address",
          "type": "address"
        },
        {
          "name": "_name",
          "type": "string"
        },
        {
          "name": "_companyName",
          "type": "string"
        },
        {
          "name": "_numYearsExperience",
          "type": "int256"
        },
        {
          "name": "_pricePerHour",
          "type": "int256"
        },
        {
          "name": "_specialisation",
          "type": "string"
        },
        {
          "name": "_summary",
          "type": "string"
        },
        {
          "name": "_numAdsViewed",
          "type": "int256"
        },
        {
          "name": "_numAdsPurchased",
          "type": "int256"
        },
        {
          "name": "_website",
          "type": "string"
        },
        {
          "name": "_photo",
          "type": "string"
        }
      ],
      "name": "createUser",
      "outputs": [],
      "payable": false,
      "stateMutability": "nonpayable",
      "type": "function",
      "signature": "0x55613355"
    },
    {
      "constant": false,
      "inputs": [
        {
          "name": "_address",
          "type": "address"
        },
        {
          "name": "_emailProvided",
          "type": "bool"
        },
        {
          "name": "_minAge",
          "type": "int256"
        },
        {
          "name": "_minNumInteractions",
          "type": "int256"
        },
        {
          "name": "_minNumPurchases",
          "type": "int256"
        },
        {
          "name": "_minScore",
          "type": "int256"
        }
      ],
      "name": "setSellerParamaters",
      "outputs": [],
      "payable": false,
      "stateMutability": "nonpayable",
      "type": "function",
      "signature": "0xeacf8d08"
    },
    {
      "constant": true,
      "inputs": [
        {
          "name": "adr",
          "type": "address"
        }
      ],
      "name": "doesUserExist",
      "outputs": [
        {
          "name": "",
          "type": "bool"
        }
      ],
      "payable": false,
      "stateMutability": "view",
      "type": "function",
      "signature": "0xecb41054"
    },
    {
      "constant": true,
      "inputs": [],
      "name": "initialised",
      "outputs": [
        {
          "name": "",
          "type": "bool"
        }
      ],
      "payable": false,
      "stateMutability": "view",
      "type": "function",
      "signature": "0x07003bb4"
    },
    {
      "constant": true,
      "inputs": [],
      "name": "getAddressList",
      "outputs": [
        {
          "name": "",
          "type": "address[]"
        }
      ],
      "payable": false,
      "stateMutability": "view",
      "type": "function",
      "signature": "0x81119130"
    },
    {
      "constant": true,
      "inputs": [
        {
          "name": "_address",
          "type": "address"
        }
      ],
      "name": "getSellerInfo",
      "outputs": [
        {
          "name": "name",
          "type": "string"
        },
        {
          "name": "companyName",
          "type": "string"
        },
        {
          "name": "numYearsExperience",
          "type": "int256"
        },
        {
          "name": "pricePerHour",
          "type": "int256"
        },
        {
          "name": "specialisation",
          "type": "string"
        },
        {
          "name": "summary",
          "type": "string"
        },
        {
          "name": "website",
          "type": "string"
        }
      ],
      "payable": false,
      "stateMutability": "view",
      "type": "function",
      "signature": "0xcf317b7e"
    },
    {
      "constant": true,
      "inputs": [
        {
          "name": "_address",
          "type": "address"
        }
      ],
      "name": "getWebsite",
      "outputs": [
        {
          "name": "",
          "type": "string"
        }
      ],
      "payable": false,
      "stateMutability": "view",
      "type": "function",
      "signature": "0xc05e9dec"
    },
    {
      "constant": true,
      "inputs": [
        {
          "name": "_address",
          "type": "address"
        }
      ],
      "name": "getPhoto",
      "outputs": [
        {
          "name": "",
          "type": "string"
        }
      ],
      "payable": false,
      "stateMutability": "view",
      "type": "function",
      "signature": "0x3e23d0dc"
    },
    {
      "constant": false,
      "inputs": [
        {
          "name": "_maxPricePerHour",
          "type": "int256"
        },
        {
          "name": "_minYearsExperience",
          "type": "int256"
        },
        {
          "name": "_specialisation",
          "type": "string"
        }
      ],
      "name": "setSearchParams",
      "outputs": [
        {
          "name": "",
          "type": "bool"
        }
      ],
      "payable": false,
      "stateMutability": "nonpayable",
      "type": "function",
      "signature": "0x92793f00"
    },
    {
      "constant": true,
      "inputs": [],
      "name": "getMaxPricePerHour",
      "outputs": [
        {
          "name": "",
          "type": "int256"
        }
      ],
      "payable": false,
      "stateMutability": "view",
      "type": "function",
      "signature": "0x54b93a4c"
    },
    {
      "constant": true,
      "inputs": [],
      "name": "getMinYearsExperience",
      "outputs": [
        {
          "name": "",
          "type": "int256"
        }
      ],
      "payable": false,
      "stateMutability": "view",
      "type": "function",
      "signature": "0x5ed81e9a"
    },
    {
      "constant": true,
      "inputs": [],
      "name": "getSpecialisation",
      "outputs": [
        {
          "name": "",
          "type": "string"
        }
      ],
      "payable": false,
      "stateMutability": "view",
      "type": "function",
      "signature": "0xb97ceccc"
    },
    {
      "constant": true,
      "inputs": [
        {
          "name": "_address",
          "type": "address"
        }
      ],
      "name": "getNumAdsViewed",
      "outputs": [
        {
          "name": "",
          "type": "int256"
        }
      ],
      "payable": false,
      "stateMutability": "view",
      "type": "function",
      "signature": "0xb3031ff0"
    },
    {
      "constant": false,
      "inputs": [
        {
          "name": "_address",
          "type": "address"
        }
      ],
      "name": "incrementNumAdsViewed",
      "outputs": [],
      "payable": false,
      "stateMutability": "nonpayable",
      "type": "function",
      "signature": "0x978e7049"
    },
    {
      "constant": true,
      "inputs": [
        {
          "name": "_address",
          "type": "address"
        }
      ],
      "name": "getNumAdsPurchased",
      "outputs": [
        {
          "name": "",
          "type": "int256"
        }
      ],
      "payable": false,
      "stateMutability": "view",
      "type": "function",
      "signature": "0x223fdeb0"
    },
    {
      "constant": false,
      "inputs": [
        {
          "name": "_address",
          "type": "address"
        }
      ],
      "name": "incrementNumAdsPurchased",
      "outputs": [],
      "payable": false,
      "stateMutability": "nonpayable",
      "type": "function",
      "signature": "0x924c20ef"
    },
    {
      "constant": false,
      "inputs": [
        {
          "name": "sellerAddress",
          "type": "address"
        },
        {
          "name": "userAddress",
          "type": "address"
        }
      ],
      "name": "addPastBuyer",
      "outputs": [],
      "payable": false,
      "stateMutability": "nonpayable",
      "type": "function",
      "signature": "0xf87a6e52"
    },
    {
      "constant": true,
      "inputs": [
        {
          "name": "sellerAddress",
          "type": "address"
        }
      ],
      "name": "getPastBuyers",
      "outputs": [
        {
          "name": "",
          "type": "address[]"
        }
      ],
      "payable": false,
      "stateMutability": "view",
      "type": "function",
      "signature": "0xcb79cb14"
    },
    {
      "constant": true,
      "inputs": [
        {
          "name": "_address",
          "type": "address"
        }
      ],
      "name": "getMinAge",
      "outputs": [
        {
          "name": "",
          "type": "int256"
        }
      ],
      "payable": false,
      "stateMutability": "view",
      "type": "function",
      "signature": "0x2dffc239"
    },
    {
      "constant": true,
      "inputs": [
        {
          "name": "_address",
          "type": "address"
        }
      ],
      "name": "getMinScore",
      "outputs": [
        {
          "name": "",
          "type": "int256"
        }
      ],
      "payable": false,
      "stateMutability": "view",
      "type": "function",
      "signature": "0xae627c8d"
    },
    {
      "constant": true,
      "inputs": [
        {
          "name": "_address",
          "type": "address"
        }
      ],
      "name": "getMinNumInteractions",
      "outputs": [
        {
          "name": "",
          "type": "int256"
        }
      ],
      "payable": false,
      "stateMutability": "view",
      "type": "function",
      "signature": "0x361f1ecb"
    },
    {
      "constant": true,
      "inputs": [
        {
          "name": "_address",
          "type": "address"
        }
      ],
      "name": "getMinNumPurchases",
      "outputs": [
        {
          "name": "",
          "type": "int256"
        }
      ],
      "payable": false,
      "stateMutability": "view",
      "type": "function",
      "signature": "0x902787b9"
    },
    {
      "constant": true,
      "inputs": [
        {
          "name": "_address",
          "type": "address"
        }
      ],
      "name": "getEmailProvided",
      "outputs": [
        {
          "name": "",
          "type": "bool"
        }
      ],
      "payable": false,
      "stateMutability": "view",
      "type": "function",
      "signature": "0x0c2796c6"
    }
  ],
  "bytecode": "0x6080604052600160025534801561001557600080fd5b506040516020806126f78339810180604052602081101561003557600080fd5b505160008054600160a060020a03909216600160a060020a0319909216919091179055612690806100676000396000f3fe6080604052600436106101955763ffffffff7c010000000000000000000000000000000000000000000000000000000060003504166307003bb4811461019a5780630c2796c6146101c3578063223fdeb0146101f65780632dffc2391461023b57806335e521f31461026e578063361f1ecb146102f8578063368b87721461032b5780633e23d0dc146103e057806354b93a4c1461041357806355613355146104285780635ed81e9a146107a757806381119130146107bc578063820879a3146108215780638794e11514610836578063902787b9146108a0578063924c20ef146108d357806392793f0014610906578063978e7049146109c5578063a87430ba146109f8578063ae627c8d14610bfc578063b3031ff014610c2f578063b42dde3214610c62578063b97ceccc14610c77578063c05e9dec14610c8c578063cb79cb1414610cbf578063ce6d41de14610cf2578063cf317b7e14610d07578063d7fc728414610f58578063e21f37ce14611069578063eacf8d081461107e578063ecb41054146110d1578063f87a6e5214611104575b600080fd5b3480156101a657600080fd5b506101af61113f565b604080519115158252519081900360200190f35b3480156101cf57600080fd5b506101af600480360360208110156101e657600080fd5b5035600160a060020a031661115a565b34801561020257600080fd5b506102296004803603602081101561021957600080fd5b5035600160a060020a031661117f565b60408051918252519081900360200190f35b34801561024757600080fd5b506102296004803603602081101561025e57600080fd5b5035600160a060020a031661119d565b34801561027a57600080fd5b506102836111b8565b6040805160208082528351818301528351919283929083019185019080838360005b838110156102bd5781810151838201526020016102a5565b50505050905090810190601f1680156102ea5780820380516001836020036101000a031916815260200191505b509250505060405180910390f35b34801561030457600080fd5b506102296004803603602081101561031b57600080fd5b5035600160a060020a0316611246565b34801561033757600080fd5b506103de6004803603602081101561034e57600080fd5b81019060208101813564010000000081111561036957600080fd5b82018360208201111561037b57600080fd5b8035906020019184600183028401116401000000008311171561039d57600080fd5b91908080601f016020809104026020016040519081016040528093929190818152602001838380828437600092019190915250929550611264945050505050565b005b3480156103ec57600080fd5b506102836004803603602081101561040357600080fd5b5035600160a060020a031661127b565b34801561041f57600080fd5b50610229611345565b34801561043457600080fd5b506103de600480360361016081101561044c57600080fd5b600160a060020a03823516919081019060408101602082013564010000000081111561047757600080fd5b82018360208201111561048957600080fd5b803590602001918460018302840111640100000000831117156104ab57600080fd5b91908080601f01602080910402602001604051908101604052809392919081815260200183838082843760009201919091525092959493602081019350359150506401000000008111156104fe57600080fd5b82018360208201111561051057600080fd5b8035906020019184600183028401116401000000008311171561053257600080fd5b91908080601f016020809104026020016040519081016040528093929190818152602001838380828437600092019190915250929584359560208601359591945092506060810191506040013564010000000081111561059157600080fd5b8201836020820111156105a357600080fd5b803590602001918460018302840111640100000000831117156105c557600080fd5b91908080601f016020809104026020016040519081016040528093929190818152602001838380828437600092019190915250929594936020810193503591505064010000000081111561061857600080fd5b82018360208201111561062a57600080fd5b8035906020019184600183028401116401000000008311171561064c57600080fd5b91908080601f01602080910402602001604051908101604052809392919081815260200183838082843760009201919091525092958435956020860135959194509250606081019150604001356401000000008111156106ab57600080fd5b8201836020820111156106bd57600080fd5b803590602001918460018302840111640100000000831117156106df57600080fd5b91908080601f016020809104026020016040519081016040528093929190818152602001838380828437600092019190915250929594936020810193503591505064010000000081111561073257600080fd5b82018360208201111561074457600080fd5b8035906020019184600183028401116401000000008311171561076657600080fd5b91908080601f01602080910402602001604051908101604052809392919081815260200183838082843760009201919091525092955061134b945050505050565b3480156107b357600080fd5b506102296117ca565b3480156107c857600080fd5b506107d16117d0565b60408051602080825283518183015283519192839290830191858101910280838360005b8381101561080d5781810151838201526020016107f5565b505050509050019250505060405180910390f35b34801561082d57600080fd5b50610229611832565b34801561084257600080fd5b506108696004803603602081101561085957600080fd5b5035600160a060020a0316611838565b60408051968752602087019590955285850193909352606085019190915215156080840152151560a0830152519081900360c00190f35b3480156108ac57600080fd5b50610229600480360360208110156108c357600080fd5b5035600160a060020a0316611873565b3480156108df57600080fd5b506103de600480360360208110156108f657600080fd5b5035600160a060020a0316611891565b34801561091257600080fd5b506101af6004803603606081101561092957600080fd5b81359160208101359181019060608101604082013564010000000081111561095057600080fd5b82018360208201111561096257600080fd5b8035906020019184600183028401116401000000008311171561098457600080fd5b91908080601f0160208091040260200160405190810160405280939291908181526020018383808284376000920191909152509295506118b4945050505050565b3480156109d157600080fd5b506103de600480360360208110156109e857600080fd5b5035600160a060020a03166118df565b348015610a0457600080fd5b50610a2b60048036036020811015610a1b57600080fd5b5035600160a060020a0316611902565b6040518080602001806020018a815260200189815260200180602001806020018881526020018781526020018615151515815260200185810385528e818151815260200191508051906020019080838360005b83811015610a96578181015183820152602001610a7e565b50505050905090810190601f168015610ac35780820380516001836020036101000a031916815260200191505b5085810384528d5181528d516020918201918f019080838360005b83811015610af6578181015183820152602001610ade565b50505050905090810190601f168015610b235780820380516001836020036101000a031916815260200191505b5085810383528a5181528a516020918201918c019080838360005b83811015610b56578181015183820152602001610b3e565b50505050905090810190601f168015610b835780820380516001836020036101000a031916815260200191505b5085810382528951815289516020918201918b019080838360005b83811015610bb6578181015183820152602001610b9e565b50505050905090810190601f168015610be35780820380516001836020036101000a031916815260200191505b509d505050505050505050505050505060405180910390f35b348015610c0857600080fd5b5061022960048036036020811015610c1f57600080fd5b5035600160a060020a0316611b92565b348015610c3b57600080fd5b5061022960048036036020811015610c5257600080fd5b5035600160a060020a0316611bb0565b348015610c6e57600080fd5b50610229611bce565b348015610c8357600080fd5b50610283611bd4565b348015610c9857600080fd5b5061028360048036036020811015610caf57600080fd5b5035600160a060020a0316611c61565b348015610ccb57600080fd5b506107d160048036036020811015610ce257600080fd5b5035600160a060020a0316611cd5565b348015610cfe57600080fd5b50610283611d4a565b348015610d1357600080fd5b50610d3a60048036036020811015610d2a57600080fd5b5035600160a060020a0316611daa565b60405180806020018060200188815260200187815260200180602001806020018060200186810386528d818151815260200191508051906020019080838360005b83811015610d93578181015183820152602001610d7b565b50505050905090810190601f168015610dc05780820380516001836020036101000a031916815260200191505b5086810385528c5181528c516020918201918e019080838360005b83811015610df3578181015183820152602001610ddb565b50505050905090810190601f168015610e205780820380516001836020036101000a031916815260200191505b5086810384528951815289516020918201918b019080838360005b83811015610e53578181015183820152602001610e3b565b50505050905090810190601f168015610e805780820380516001836020036101000a031916815260200191505b5086810383528851815288516020918201918a019080838360005b83811015610eb3578181015183820152602001610e9b565b50505050905090810190601f168015610ee05780820380516001836020036101000a031916815260200191505b50868103825287518152875160209182019189019080838360005b83811015610f13578181015183820152602001610efb565b50505050905090810190601f168015610f405780820380516001836020036101000a031916815260200191505b509c5050505050505050505050505060405180910390f35b348015610f6457600080fd5b50610f8b60048036036020811015610f7b57600080fd5b5035600160a060020a03166120d0565b604051808060200180602001838103835285818151815260200191508051906020019080838360005b83811015610fcc578181015183820152602001610fb4565b50505050905090810190601f168015610ff95780820380516001836020036101000a031916815260200191505b50838103825284518152845160209182019186019080838360005b8381101561102c578181015183820152602001611014565b50505050905090810190601f1680156110595780820380516001836020036101000a031916815260200191505b5094505050505060405180910390f35b34801561107557600080fd5b5061028361220f565b34801561108a57600080fd5b506103de600480360360c08110156110a157600080fd5b50600160a060020a0381351690602081013515159060408101359060608101359060808101359060a00135612269565b3480156110dd57600080fd5b506101af600480360360208110156110f457600080fd5b5035600160a060020a03166124ad565b34801561111057600080fd5b506103de6004803603604081101561112757600080fd5b50600160a060020a03813581169160200135166124e6565b600754600090151561115357506000611157565b5060015b90565b600160a060020a03811660009081526005602052604090206004015460ff165b919050565b600160a060020a031660009081526003602052604090206007015490565b600160a060020a031660009081526005602052604090205490565b600a805460408051602060026001851615610100026000190190941693909304601f8101849004840282018401909252818152929183018282801561123e5780601f106112135761010080835404028352916020019161123e565b820191906000526020600020905b81548152906001019060200180831161122157829003601f168201915b505050505081565b600160a060020a031660009081526005602052604090206001015490565b8051611277906001906020840190612585565b5050565b60606004600083600160a060020a0316600160a060020a031681526020019081526020016000206001018054600181600116156101000203166002900480601f0160208091040260200160405190810160405280929190818152602001828054600181600116156101000203166002900480156113395780601f1061130e57610100808354040283529160200191611339565b820191906000526020600020905b81548152906001019060200180831161131c57829003601f168201915b50505050509050919050565b60085490565b600160a060020a038b16600090815260036020526040902060088101548c919060ff161561155757600160a060020a0382166000908152600360205260408120906113968282612603565b6113a4600183016000612603565b600282016000905560038201600090556004820160006113c49190612603565b6113d2600583016000612603565b50600060068201819055600782018190556008909101805460ff1916905560408051610120810182528e815260208082018f90528183018e9052606082018d9052608082018c905260a082018b905260c082018a905260e082018990526001610100830152600160a060020a0386168452600381529190922082518051919261146092849290910190612585565b5060208281015180516114799260018501920190612585565b506040820151600282015560608201516003820155608082015180516114a9916004840191602090910190612585565b5060a082015180516114c5916005840191602090910190612585565b5060c0820151600682015560e08201516007820155610100909101516008909101805460ff19169115159190911790556040805180820182528581526020808201869052600160a060020a0385166000908152600482529290922081518051929391926115359284920190612585565b50602082810151805161154e9260018501920190612585565b509050506116bc565b60408051610120810182528d815260208082018e90528183018d9052606082018c9052608082018b905260a082018a905260c0820189905260e082018890526001610100830152600160a060020a0385166000908152600382529290922081518051929391926115ca9284920190612585565b5060208281015180516115e39260018501920190612585565b50604082015160028201556060820151600382015560808201518051611613916004840191602090910190612585565b5060a0820151805161162f916005840191602090910190612585565b5060c0820151600682015560e08201516007820155610100909101516008909101805460ff19169115159190911790556040805180820182528581526020808201869052600160a060020a03851660009081526004825292909220815180519293919261169f9284920190612585565b5060208281015180516116b89260018501920190612585565b5050505b6007805460018101825560009182527fa66cc928b5edb82af9bd49922954155ab7b0942694bea4ce44661d9a8736c68801805473ffffffffffffffffffffffffffffffffffffffff1916600160a060020a03851617905561171b61254e565b60008054604080517fb46310f6000000000000000000000000000000000000000000000000000000008152600160a060020a03888116600483015260248201869052915194955091169263b46310f692604480840193602093929083900390910190829087803b15801561178e57600080fd5b505af11580156117a2573d6000803e3d6000fd5b505050506040513d60208110156117b857600080fd5b50505050505050505050505050505050565b60095490565b6060600780548060200260200160405190810160405280929190818152602001828054801561182857602002820191906000526020600020905b8154600160a060020a0316815260019091019060200180831161180a575b5050505050905090565b60085481565b600560205260009081526040902080546001820154600283015460038401546004909401549293919290919060ff8082169161010090041686565b600160a060020a031660009081526005602052604090206002015490565b600160a060020a0316600090815260036020526040902060070180546001019055565b6008839055600982905580516000906118d490600a906020850190612585565b506001949350505050565b600160a060020a0316600090815260036020526040902060060180546001019055565b60036020908152600091825260409182902080548351601f600260001961010060018616150201909316929092049182018490048402810184019094528084529092918391908301828280156119995780601f1061196e57610100808354040283529160200191611999565b820191906000526020600020905b81548152906001019060200180831161197c57829003601f168201915b505050505090806001018054600181600116156101000203166002900480601f016020809104026020016040519081016040528092919081815260200182805460018160011615610100020316600290048015611a375780601f10611a0c57610100808354040283529160200191611a37565b820191906000526020600020905b815481529060010190602001808311611a1a57829003601f168201915b505050505090806002015490806003015490806004018054600181600116156101000203166002900480601f016020809104026020016040519081016040528092919081815260200182805460018160011615610100020316600290048015611ae15780601f10611ab657610100808354040283529160200191611ae1565b820191906000526020600020905b815481529060010190602001808311611ac457829003601f168201915b5050505060058301805460408051602060026001851615610100026000190190941693909304601f8101849004840282018401909252818152949594935090830182828015611b715780601f10611b4657610100808354040283529160200191611b71565b820191906000526020600020905b815481529060010190602001808311611b5457829003601f168201915b50505050600683015460078401546008909401549293909290915060ff1689565b600160a060020a031660009081526005602052604090206003015490565b600160a060020a031660009081526003602052604090206006015490565b60095481565b600a8054604080516020601f60026000196101006001881615020190951694909404938401819004810282018101909252828152606093909290918301828280156118285780601f10611c3557610100808354040283529160200191611828565b820191906000526020600020905b815481529060010190602001808311611c4357509395945050505050565b600160a060020a03811660009081526004602090815260409182902080548351601f60026000196101006001861615020190931692909204918201849004840281018401909452808452606093928301828280156113395780601f1061130e57610100808354040283529160200191611339565b600160a060020a03811660009081526006602090815260409182902080548351818402810184019094528084526060939283018282801561133957602002820191906000526020600020905b8154600160a060020a03168152600190910190602001808311611d215750505050509050919050565b60018054604080516020601f600260001961010087891615020190951694909404938401819004810282018101909252828152606093909290918301828280156118285780601f10611c3557610100808354040283529160200191611828565b600160a060020a038116600090815260036020818152604080842060028082015494820154600480865284882084548651600180831615610100026000190190921695909504601f81018990048902860189019097528685526060998a99909889988b9889988998919795880196949591949188019360058901938991830182828015611e785780601f10611e4d57610100808354040283529160200191611e78565b820191906000526020600020905b815481529060010190602001808311611e5b57829003601f168201915b5050895460408051602060026001851615610100026000190190941693909304601f8101849004840282018401909252818152959c508b945092508401905082828015611f065780601f10611edb57610100808354040283529160200191611f06565b820191906000526020600020905b815481529060010190602001808311611ee957829003601f168201915b5050865460408051602060026001851615610100026000190190941693909304601f8101849004840282018401909252818152959b5088945092508401905082828015611f945780601f10611f6957610100808354040283529160200191611f94565b820191906000526020600020905b815481529060010190602001808311611f7757829003601f168201915b5050855460408051602060026001851615610100026000190190941693909304601f8101849004840282018401909252818152959850879450925084019050828280156120225780601f10611ff757610100808354040283529160200191612022565b820191906000526020600020905b81548152906001019060200180831161200557829003601f168201915b5050845460408051602060026001851615610100026000190190941693909304601f8101849004840282018401909252818152959750869450925084019050828280156120b05780601f10612085576101008083540402835291602001916120b0565b820191906000526020600020905b81548152906001019060200180831161209357829003601f168201915b505050505090509650965096509650965096509650919395979092949650565b60046020908152600091825260409182902080548351601f600260001961010060018616150201909316929092049182018490048402810184019094528084529092918391908301828280156121675780601f1061213c57610100808354040283529160200191612167565b820191906000526020600020905b81548152906001019060200180831161214a57829003601f168201915b505050505090806001018054600181600116156101000203166002900480601f0160208091040260200160405190810160405280929190818152602001828054600181600116156101000203166002900480156122055780601f106121da57610100808354040283529160200191612205565b820191906000526020600020905b8154815290600101906020018083116121e857829003601f168201915b5050505050905082565b60018054604080516020600284861615610100026000190190941693909304601f8101849004840282018401909252818152929183018282801561123e5780601f106112135761010080835404028352916020019161123e565b600160a060020a03861660009081526005602052604090206004810154610100900460ff16156123e057600160a060020a0387166000908152600360205260408120906122b68282612603565b6122c4600183016000612603565b600282016000905560038201600090556004820160006122e49190612603565b6122f2600583016000612603565b600682016000905560078201600090556008820160006101000a81549060ff0219169055505060c0604051908101604052808681526020018581526020018481526020018381526020018715158152602001600115158152506005600089600160a060020a0316600160a060020a031681526020019081526020016000206000820151816000015560208201518160010155604082015181600201556060820151816003015560808201518160040160006101000a81548160ff02191690831515021790555060a08201518160040160016101000a81548160ff0219169083151502179055509050506124a4565b60c0604051908101604052808681526020018581526020018481526020018381526020018715158152602001600115158152506005600089600160a060020a0316600160a060020a031681526020019081526020016000206000820151816000015560208201518160010155604082015181600201556060820151816003015560808201518160040160006101000a81548160ff02191690831515021790555060a08201518160040160016101000a81548160ff0219169083151502179055509050505b50505050505050565b600160a060020a03811660009081526003602052604081206008015460ff161515600114156124de5750600161117a565b50600061117a565b600160a060020a03918216600081815260066020908152604080832080546001808201835591855283852001805473ffffffffffffffffffffffffffffffffffffffff1916969097169590951790955591815260039091529190912060070180549091019055565b60028054604080516020808201849052825180830382018152918301909252805191012060019091019091556101f4908190060190565b828054600181600116156101000203166002900490600052602060002090601f016020900481019282601f106125c657805160ff19168380011785556125f3565b828001600101855582156125f3579182015b828111156125f35782518255916020019190600101906125d8565b506125ff92915061264a565b5090565b50805460018160011615610100020316600290046000825580601f106126295750612647565b601f016020900490600052602060002090810190612647919061264a565b50565b61115791905b808211156125ff576000815560010161265056fea165627a7a723058200af926df9950c1cb1bc368e53b7f57848e11c25a78c21509638f45383265d32d0029",
  "source": "pragma solidity ^0.5.0;\n\nimport \"./TutorialToken.sol\";\n\ncontract Sellers{\n\n    \n    TutorialToken _tt;\n    // calling a seperate contract\n    constructor(address _f) public\n    {\n        _tt = TutorialToken(_f);\n    }\n    \n    string public message;\n \n    function setMessage(string memory _message) public \n    {\n        message = _message;\n    }\n\n    function getMessage() public view returns (string memory) \n    {\n        return message;\n    }\n\n    // generate a random number between 500 and 1000\n    uint nonce = 1;\n    function randomNumber() internal returns (uint) \n    {\n        uint randomnumber = uint(keccak256(abi.encodePacked(nonce))) % 500;\n        nonce++;\n        randomnumber = randomnumber + 500;\n        return randomnumber;\n    }\n\n    struct User {\n        string name;\n        string companyName;\n        int numYearsExperience;\n        int pricePerHour;\n        string specialisation;\n        string summary;\n        int numAdsViewed;\n        int numAdsPurchased;\n        bool set;\n    }\n\n    // structure to contain extra data the system needs \n    struct UserExtra {\n        string website;\n        string photo;\n    }\n\n\n    struct UserParamaters {\n        int minAge;\n        int minNumInteractions;\n        int minNumPurchases;\n        int minScore;\n        bool emailProvided;\n        bool set;\n\n    }    \n\n\n    // mapping of address to User struct\n    mapping(address => User) public users;\n\n    // mapping of address to extra-data User struct\n    mapping(address => UserExtra) public usersExtra;\n\n    // mapping of address to UserParamaters struct\n    mapping(address => UserParamaters) public userParams;\n\n    // this is a mapping of all past purchases (i.e. list of buyer addresses for a given seller address)\n    mapping(address => address[]) pastBuyers;\n\n    // list of all the addresses\n    address[] addressArray;\n\n    function createUser(\n        address _address, \n        string memory _name, \n        string memory _companyName, \n        int _numYearsExperience, \n        int _pricePerHour, \n        string memory _specialisation, \n        string memory _summary,\n        int _numAdsViewed,\n        int _numAdsPurchased,\n        string memory _website,\n        string memory _photo\n        ) public \n\n    {\n        \n        address _userAddress = _address;\n        \n        // Storage for user\n        User storage user = users[_userAddress];\n\n\n        \n        // Check that the user did not already exist\n        if(user.set)\n        {\n            delete(users[_userAddress]);\n\n              //Store the user\n            users[_userAddress] = User({\n                name: _name,\n                companyName: _companyName,\n                numYearsExperience: _numYearsExperience,\n                pricePerHour: _pricePerHour,\n                specialisation: _specialisation,\n                summary: _summary,\n                set: true,\n                numAdsViewed: _numAdsViewed,\n                numAdsPurchased: _numAdsPurchased\n            });\n\n\n            // set the extra data needed for a seller \n            usersExtra[_userAddress] = UserExtra({\n                website: _website,\n                photo: _photo\n            });\n\n\n        }\n        else\n        {\n            //Store the user\n            users[_userAddress] = User({\n                name: _name,\n                companyName: _companyName,\n                numYearsExperience: _numYearsExperience,\n                pricePerHour: _pricePerHour,\n                specialisation: _specialisation,\n                summary: _summary,\n                set: true,\n                numAdsViewed: _numAdsViewed,\n                numAdsPurchased: _numAdsPurchased\n            });\n\n            // set the extra data needed for a seller \n            usersExtra[_userAddress] = UserExtra({\n                website: _website,\n                photo: _photo\n            });\n        }\n        \n        // add to array\n        addressArray.push(_userAddress);\n\n        uint number = randomNumber();\n\n        // set the balance of each user\n        _tt.setBalanceOf(_userAddress, number);\n    }\n    \n    function setSellerParamaters(\n        address _address, \n        bool _emailProvided, \n        int _minAge, \n        int _minNumInteractions, \n        int _minNumPurchases, \n        int _minScore) public\n    {\n\n        // Storage for user\n        UserParamaters storage userParam = userParams[_address];\n\n        \n        // Check that the user did not already exist\n        if(userParam.set)\n        {\n            delete(users[_address]);\n\n              //Store the user\n            userParams[_address] = UserParamaters({\n                emailProvided: _emailProvided,\n                minAge: _minAge,\n                minNumInteractions: _minNumInteractions,\n                minNumPurchases: _minNumPurchases,\n                minScore: _minScore,\n                set: true\n            });\n        }\n        else\n        {\n            //Store the user\n            userParams[_address] = UserParamaters({\n                emailProvided: _emailProvided,\n                minAge: _minAge,\n                minNumInteractions: _minNumInteractions,\n                minNumPurchases: _minNumPurchases,\n                minScore: _minScore,\n                set: true\n            });\n        }\n    }\n\n    // function to check if an Ethereum address already exists in the system\n    function doesUserExist(address adr) public view returns (bool)\n    {\n        if(users[adr].set == true)\n        {\n            return true;\n        }\n        else\n        {\n            return false;\n        }\n    }\n\n    // function to check if an Ethereum address already exists in the system\n    function initialised() public view returns (bool)\n    {\n        if(addressArray.length == 0)\n        {\n            return false;\n        }\n        else\n        {\n            return true;\n        }\n    }\n\n\n    function getAddressList() public view returns (address[] memory)\n    {\n        return addressArray;\n    }\n    \n\n    function getSellerInfo(address _address) public view returns(\n        string memory name,\n        string memory companyName,\n        int numYearsExperience,\n        int pricePerHour,\n        string memory specialisation,\n        string memory summary,\n        string memory website)\n    {\n        return (\n            users[_address].name,\n            users[_address].companyName,\n            users[_address].numYearsExperience,\n            users[_address].pricePerHour,\n            users[_address].specialisation,\n            users[_address].summary,    \n            usersExtra[_address].website\n        );\n    }\n\n    function getWebsite(address _address) public view returns(string memory)\n    {\n        return usersExtra[_address].website;        \n    }\n\n    function getPhoto(address _address) public view returns(string memory)\n    {\n        return usersExtra[_address].photo;        \n    }\n\n\n\n \n    // SEARCH PARAMATERS\n    int public maxPricePerHour;\n    int public minYearsExperience;\n    string public specialisation;\n\n\n    function setSearchParams(\n        int _maxPricePerHour, \n        int _minYearsExperience, \n        string memory _specialisation) public returns(bool)\n    { \n        maxPricePerHour = _maxPricePerHour;\n        minYearsExperience = _minYearsExperience;\n        specialisation = _specialisation;\n        return true;\n    }\n  \n    function getMaxPricePerHour() public view returns(int)\n    {   \n        return maxPricePerHour;\n    }\n\n    function getMinYearsExperience() public view returns(int)\n    {   \n        return minYearsExperience;\n    }\n\n    function getSpecialisation() public view returns(string memory)\n    {   \n        return specialisation;\n    }\n\n    \n    // return the number of ads viewed for a given seller\n    function getNumAdsViewed(address _address) public view returns(int)\n    {   \n        return users[_address].numAdsViewed;\n    }\n\n    // increment the number of ads viewed of a given seller\n    function incrementNumAdsViewed(address _address) public\n    {\n        users[_address].numAdsViewed += 1; \n    }\n\n    // return the number of ads purchased for a given seller\n    function getNumAdsPurchased(address _address) public view returns(int)\n    {   \n        return users[_address].numAdsPurchased;\n    }\n\n    // increment the number of ads purchased for a given seller\n    function incrementNumAdsPurchased(address _address) public\n    {\n        users[_address].numAdsPurchased += 1; \n    }\n\n    // add to the mapping, this is called as a BUYER!\n    function addPastBuyer(address sellerAddress, address userAddress) public\n    {\n        pastBuyers[sellerAddress].push(userAddress);\n\n        // increment the number of ads purchased\n        users[sellerAddress].numAdsPurchased += 1; \n    }\n\n    // this is called as a SELLER\n    function getPastBuyers(address sellerAddress) public view returns(address[] memory)\n    {\n        return pastBuyers[sellerAddress];\n    }\n\n    function getMinAge(address _address) public view returns(int)\n    {\n        return userParams[_address].minAge;\n    }\n\n    function getMinScore(address _address) public view returns(int)\n    {\n        return userParams[_address].minScore;\n    }\n    function getMinNumInteractions(address _address) public view returns(int)\n    {\n        return userParams[_address].minNumInteractions;\n    }\n    function getMinNumPurchases(address _address) public view returns(int)\n    {\n        return userParams[_address].minNumPurchases;\n    }\n    function getEmailProvided(address _address) public view returns(bool)\n    {\n        return userParams[_address].emailProvided;\n    }\n\n}",
  "sourcePath": "/Users/christianjohnston/Desktop/Next/contracts/Sellers.sol",
  "compiler": {
    "name": "solc",
    "version": "0.5.0+commit.1d4f565a.Emscripten.clang"
  },
  "schemaVersion": "3.0.1",
  "updatedAt": "2019-04-30T10:28:17.503Z",
  "devdoc": {
    "methods": {}
  },
  "userdoc": {
    "methods": {}
  }
}