{
  "contractName": "TutorialToken",
  "abi": [
    {
      "constant": true,
      "inputs": [],
      "name": "name",
      "outputs": [
        {
          "name": "",
          "type": "string"
        }
      ],
      "payable": false,
      "stateMutability": "view",
      "type": "function",
      "signature": "0x06fdde03"
    },
    {
      "constant": true,
      "inputs": [],
      "name": "decimals",
      "outputs": [
        {
          "name": "",
          "type": "uint256"
        }
      ],
      "payable": false,
      "stateMutability": "view",
      "type": "function",
      "signature": "0x313ce567"
    },
    {
      "constant": true,
      "inputs": [],
      "name": "symbol",
      "outputs": [
        {
          "name": "",
          "type": "string"
        }
      ],
      "payable": false,
      "stateMutability": "view",
      "type": "function",
      "signature": "0x95d89b41"
    },
    {
      "inputs": [],
      "payable": false,
      "stateMutability": "nonpayable",
      "type": "constructor",
      "signature": "constructor"
    },
    {
      "constant": true,
      "inputs": [],
      "name": "totalSupply",
      "outputs": [
        {
          "name": "",
          "type": "uint256"
        }
      ],
      "payable": false,
      "stateMutability": "view",
      "type": "function",
      "signature": "0x18160ddd"
    },
    {
      "constant": true,
      "inputs": [
        {
          "name": "addr",
          "type": "address"
        }
      ],
      "name": "balanceOf",
      "outputs": [
        {
          "name": "balance",
          "type": "uint256"
        }
      ],
      "payable": false,
      "stateMutability": "view",
      "type": "function",
      "signature": "0x70a08231"
    },
    {
      "constant": false,
      "inputs": [
        {
          "name": "addr",
          "type": "address"
        },
        {
          "name": "value",
          "type": "uint256"
        }
      ],
      "name": "setBalanceOf",
      "outputs": [
        {
          "name": "balance",
          "type": "uint256"
        }
      ],
      "payable": false,
      "stateMutability": "nonpayable",
      "type": "function",
      "signature": "0xb46310f6"
    },
    {
      "constant": false,
      "inputs": [
        {
          "name": "_address",
          "type": "address"
        },
        {
          "name": "value",
          "type": "uint256"
        }
      ],
      "name": "increaseBalance",
      "outputs": [
        {
          "name": "",
          "type": "bool"
        }
      ],
      "payable": false,
      "stateMutability": "nonpayable",
      "type": "function",
      "signature": "0x5b86f599"
    },
    {
      "constant": false,
      "inputs": [
        {
          "name": "sellerAddress",
          "type": "address"
        },
        {
          "name": "value",
          "type": "uint256"
        }
      ],
      "name": "updateBalances",
      "outputs": [
        {
          "name": "",
          "type": "bool"
        }
      ],
      "payable": false,
      "stateMutability": "nonpayable",
      "type": "function",
      "signature": "0xef1e5663"
    },
    {
      "constant": false,
      "inputs": [
        {
          "name": "to",
          "type": "address"
        },
        {
          "name": "value",
          "type": "uint256"
        }
      ],
      "name": "transfer",
      "outputs": [
        {
          "name": "success",
          "type": "bool"
        }
      ],
      "payable": false,
      "stateMutability": "nonpayable",
      "type": "function",
      "signature": "0xa9059cbb"
    },
    {
      "constant": false,
      "inputs": [
        {
          "name": "_from",
          "type": "address"
        },
        {
          "name": "_to",
          "type": "address"
        },
        {
          "name": "_value",
          "type": "uint256"
        }
      ],
      "name": "transferFrom",
      "outputs": [
        {
          "name": "success",
          "type": "bool"
        }
      ],
      "payable": false,
      "stateMutability": "nonpayable",
      "type": "function",
      "signature": "0x23b872dd"
    },
    {
      "constant": false,
      "inputs": [
        {
          "name": "_spender",
          "type": "address"
        },
        {
          "name": "_value",
          "type": "uint256"
        }
      ],
      "name": "approve",
      "outputs": [
        {
          "name": "success",
          "type": "bool"
        }
      ],
      "payable": false,
      "stateMutability": "nonpayable",
      "type": "function",
      "signature": "0x095ea7b3"
    },
    {
      "constant": true,
      "inputs": [
        {
          "name": "owner",
          "type": "address"
        },
        {
          "name": "spender",
          "type": "address"
        }
      ],
      "name": "allowance",
      "outputs": [
        {
          "name": "remaining",
          "type": "uint256"
        }
      ],
      "payable": false,
      "stateMutability": "view",
      "type": "function",
      "signature": "0xdd62ed3e"
    }
  ],
  "bytecode": "0x6080604052606460015534801561001557600080fd5b50600154670de0b6b3a764000081026000908155338152600260205260409020556106cc806100456000396000f3fe6080604052600436106100b95763ffffffff7c010000000000000000000000000000000000000000000000000000000060003504166306fdde0381146100be578063095ea7b31461014857806318160ddd1461019557806323b872dd146101bc578063313ce567146101ff5780635b86f5991461021457806370a082311461024d57806395d89b4114610280578063a9059cbb14610295578063b46310f6146102ce578063dd62ed3e14610307578063ef1e566314610342575b600080fd5b3480156100ca57600080fd5b506100d361037b565b6040805160208082528351818301528351919283929083019185019080838360005b8381101561010d5781810151838201526020016100f5565b50505050905090810190601f16801561013a5780820380516001836020036101000a031916815260200191505b509250505060405180910390f35b34801561015457600080fd5b506101816004803603604081101561016b57600080fd5b50600160a060020a0381351690602001356103b2565b604080519115158252519081900360200190f35b3480156101a157600080fd5b506101aa6103e1565b60408051918252519081900360200190f35b3480156101c857600080fd5b50610181600480360360608110156101df57600080fd5b50600160a060020a038135811691602081013590911690604001356103e7565b34801561020b57600080fd5b506101aa6104ef565b34801561022057600080fd5b506101816004803603604081101561023757600080fd5b50600160a060020a0381351690602001356104f4565b34801561025957600080fd5b506101aa6004803603602081101561027057600080fd5b5035600160a060020a031661051a565b34801561028c57600080fd5b506100d3610535565b3480156102a157600080fd5b50610181600480360360408110156102b857600080fd5b50600160a060020a03813516906020013561056c565b3480156102da57600080fd5b506101aa600480360360408110156102f157600080fd5b50600160a060020a0381351690602001356105fa565b34801561031357600080fd5b506101aa6004803603604081101561032a57600080fd5b50600160a060020a038135811691602001351661061a565b34801561034e57600080fd5b506101816004803603604081101561036557600080fd5b50600160a060020a038135169060200135610645565b60408051808201909152601c81527f436f6e73756d65722070617274696369706174696f6e20746f6b656e00000000602082015281565b336000908152600360209081526040808320600160a060020a0386168452909152902081905560015b92915050565b60005490565b600160a060020a03831660009081526003602090815260408083203384529091528120548110801561043c5750600160a060020a03841660009081526003602090815260408083203384529091529020548211155b80156104485750600082115b80156104765750600160a060020a038416600090815260036020908152604080832033845290915290205482105b156104e45760006104868461051a565b61048f8661051a565b600160a060020a0380881660009081526002602052604080822080548990039055918816815220805486019055019050806104c98561051a565b6104d28761051a565b01146104da57fe5b60019150506104e8565b5060005b9392505050565b601281565b600160a060020a0382166000908152600260205260409020805482019055600192915050565b600160a060020a031660009081526002602052604090205490565b60408051808201909152600381527f4350540000000000000000000000000000000000000000000000000000000000602082015281565b6000808211801561058557506105813361051a565b8211155b156105f15760006105958461051a565b61059e3361051a565b3360009081526002602052604080822080548890039055600160a060020a03881682529020805486019055019050806105d68561051a565b6105df3361051a565b01146105e757fe5b60019150506103db565b50600092915050565b600160a060020a0391909116600090815260026020526040902081905590565b600160a060020a03918216600090815260036020908152604080832093909416825291909152205490565b600160a060020a03821660009081526002602052604081205482111561066d575060006103db565b5033600090815260026020526040808220805484019055600160a060020a038416825290208054829003905560016103db56fea165627a7a7230582064f3c47fcd9e92f892bdfbe985190f1eb29938f0cbdef44748b7e18eb86c8f1a0029",
  "source": "pragma solidity ^0.5.0;\n\ncontract TutorialToken {\n    string public constant symbol = \"CPT\";\n    string public constant name = \"Consumer participation token\";\n    \n    uint public constant decimals = 18;\n    \n    // total supply fixed\n    uint private _totalSupply;\n\n    // supply of CPT tokens for contract caller\n    uint private initialSupply = 100;\n    \n    mapping(address => uint) private balances;\n    mapping(address => mapping (address => uint)) private allowances;\n\n\n    // constuctor \n    constructor() public\n    {\n        _totalSupply = initialSupply * 10 ** uint256(decimals);\n        balances[msg.sender] = initialSupply;\n    }\n\n\n\n\n    // return total supply\n    function totalSupply() public view returns (uint)\n    {\n        return _totalSupply;\n    }\n    \n    // return the balance of a particlar address\n    function balanceOf(address addr) public view returns (uint balance)\n    {\n        return balances[addr];\n    }\n\n    // return the balance of a particlar address\n    function setBalanceOf(address addr, uint value) public returns (uint balance)\n    {\n        return balances[addr] = value;\n    }\n\n    // increase balance of specified address\n    function increaseBalance(address _address, uint value) public returns (bool)\n    {\n        balances[_address] += value;\n        return true;\n    }\n\n    function updateBalances(address sellerAddress, uint value) public returns (bool)\n    {\n        // if the seller does not have sufficient balance, return false\n        if(balances[sellerAddress] < value)\n        {\n            return false;\n        }\n        // else, update balances\n        else\n        {\n            balances[msg.sender] += value;\n            balances[sellerAddress] -= value;\n            return true;\n        }\n    }\n\n    // transfer token from contract owner to another address\n    function transfer(address to, uint value) public returns (bool success)\n    {\n        if(value > 0 && value <= balanceOf(msg.sender))\n        {\n            uint previousBalances = balanceOf(msg.sender) + balanceOf(to);\n            \n            //actual subtraction and addition\n            balances[msg.sender] -= value;\n            balances[to] += value;\n            \n            //emit transfer\n            //emit Transfer(msg.sender, to, value);\n            \n            // for error checking, should never fail\n            assert(balanceOf(msg.sender) + balanceOf(to) == previousBalances);\n            return true;\n        }\n        return false;\n    }\n    \n    function transferFrom(address _from, address _to, uint _value) public returns (bool success)\n    {\n        if(allowances[_from][msg.sender] > 0 && allowances[_from][msg.sender] >= _value && _value > 0 && allowances[_from][msg.sender] > _value)\n        {\n            uint previousBalances = balanceOf(_from) + balanceOf(_to);\n\n            balances[_from] -= _value;\n            balances[_to] += _value;\n            \n             //emit transfer\n            //emit Transfer(msg.sender, _to, _value);\n            \n            // for error checking, should never fail\n            assert(balanceOf(_from) + balanceOf(_to) == previousBalances);\n            return true;\n        }\n        return false;\n    }\n    \n    \n    //Set allowance for other address\n    // Allows _spender to spend no more than _value tokens on your behalf\n    function approve(address _spender, uint _value) public returns (bool success)\n    {\n        allowances[msg.sender][_spender] = _value;\n        //emit Approval(msg.sender, _spender, _value);\n        return true;\n    }\n    \n  \n    \n    function allowance(address owner, address spender) external view returns (uint remaining)\n    {\n        return allowances[owner][spender];\n    }\n}",
  "sourcePath": "/Users/christianjohnston/Desktop/Next/contracts/TutorialToken.sol",
  "compiler": {
    "name": "solc",
    "version": "0.5.0+commit.1d4f565a.Emscripten.clang"
  },
  "schemaVersion": "3.0.1",
  "updatedAt": "2019-04-30T10:28:17.485Z",
  "devdoc": {
    "methods": {}
  },
  "userdoc": {
    "methods": {}
  }
}