{
  "contractName": "Users",
  "abi": [
    {
      "constant": true,
      "inputs": [
        {
          "name": "",
          "type": "address"
        }
      ],
      "name": "users",
      "outputs": [
        {
          "name": "firstName",
          "type": "string"
        },
        {
          "name": "secondName",
          "type": "string"
        },
        {
          "name": "email",
          "type": "string"
        },
        {
          "name": "age",
          "type": "int256"
        },
        {
          "name": "verified",
          "type": "bool"
        },
        {
          "name": "personalDataScore",
          "type": "int256"
        },
        {
          "name": "adsPurchased",
          "type": "int256"
        },
        {
          "name": "numAdsViewed",
          "type": "int256"
        },
        {
          "name": "set",
          "type": "bool"
        }
      ],
      "payable": false,
      "stateMutability": "view",
      "type": "function",
      "signature": "0xa87430ba"
    },
    {
      "anonymous": false,
      "inputs": [
        {
          "indexed": false,
          "name": "name",
          "type": "string"
        }
      ],
      "name": "UserMade",
      "type": "event",
      "signature": "0x1496bf1938a888d8e18d09bf9d51704aec71e33287eedba9a0e686d1ab0a0f5a"
    },
    {
      "constant": true,
      "inputs": [
        {
          "name": "adr",
          "type": "address"
        }
      ],
      "name": "doesUserExist",
      "outputs": [
        {
          "name": "",
          "type": "bool"
        }
      ],
      "payable": false,
      "stateMutability": "view",
      "type": "function",
      "signature": "0xecb41054"
    },
    {
      "constant": true,
      "inputs": [
        {
          "name": "adr",
          "type": "address"
        }
      ],
      "name": "isUserVerified",
      "outputs": [
        {
          "name": "",
          "type": "bool"
        }
      ],
      "payable": false,
      "stateMutability": "view",
      "type": "function",
      "signature": "0xace417e0"
    },
    {
      "constant": false,
      "inputs": [
        {
          "name": "adr",
          "type": "address"
        }
      ],
      "name": "setVerified",
      "outputs": [],
      "payable": false,
      "stateMutability": "nonpayable",
      "type": "function",
      "signature": "0xc8c75647"
    },
    {
      "constant": false,
      "inputs": [
        {
          "name": "_address",
          "type": "address"
        },
        {
          "name": "_firstName",
          "type": "string"
        },
        {
          "name": "_secondName",
          "type": "string"
        },
        {
          "name": "_email",
          "type": "string"
        },
        {
          "name": "_age",
          "type": "int256"
        },
        {
          "name": "score",
          "type": "int256"
        }
      ],
      "name": "createUser",
      "outputs": [],
      "payable": false,
      "stateMutability": "nonpayable",
      "type": "function",
      "signature": "0xdaf5248a"
    },
    {
      "constant": true,
      "inputs": [],
      "name": "getAddressList",
      "outputs": [
        {
          "name": "",
          "type": "address[]"
        }
      ],
      "payable": false,
      "stateMutability": "view",
      "type": "function",
      "signature": "0x81119130"
    },
    {
      "constant": true,
      "inputs": [
        {
          "name": "_address",
          "type": "address"
        }
      ],
      "name": "getUserInfo",
      "outputs": [
        {
          "name": "firstName",
          "type": "string"
        },
        {
          "name": "secondName",
          "type": "string"
        },
        {
          "name": "email",
          "type": "string"
        },
        {
          "name": "age",
          "type": "int256"
        }
      ],
      "payable": false,
      "stateMutability": "view",
      "type": "function",
      "signature": "0x6386c1c7"
    },
    {
      "constant": true,
      "inputs": [
        {
          "name": "_address",
          "type": "address"
        }
      ],
      "name": "getPersonalDataScore",
      "outputs": [
        {
          "name": "",
          "type": "int256"
        }
      ],
      "payable": false,
      "stateMutability": "view",
      "type": "function",
      "signature": "0xbe104512"
    },
    {
      "constant": true,
      "inputs": [
        {
          "name": "_address",
          "type": "address"
        }
      ],
      "name": "getNumAdsPurchased",
      "outputs": [
        {
          "name": "",
          "type": "int256"
        }
      ],
      "payable": false,
      "stateMutability": "view",
      "type": "function",
      "signature": "0x223fdeb0"
    },
    {
      "constant": true,
      "inputs": [
        {
          "name": "_address",
          "type": "address"
        }
      ],
      "name": "getNumAdsViewed",
      "outputs": [
        {
          "name": "",
          "type": "int256"
        }
      ],
      "payable": false,
      "stateMutability": "view",
      "type": "function",
      "signature": "0xb3031ff0"
    },
    {
      "constant": false,
      "inputs": [
        {
          "name": "_address",
          "type": "address"
        }
      ],
      "name": "incrementNumAdsViewed",
      "outputs": [],
      "payable": false,
      "stateMutability": "nonpayable",
      "type": "function",
      "signature": "0x978e7049"
    },
    {
      "constant": false,
      "inputs": [
        {
          "name": "_address",
          "type": "address"
        }
      ],
      "name": "incrementNumAdsPurchased",
      "outputs": [],
      "payable": false,
      "stateMutability": "nonpayable",
      "type": "function",
      "signature": "0x924c20ef"
    }
  ],
  "bytecode": "0x608060405234801561001057600080fd5b50611165806100206000396000f3fe6080604052600436106100b95763ffffffff7c0100000000000000000000000000000000000000000000000000000000600035041663223fdeb081146100be5780636386c1c7146101035780638111913014610281578063924c20ef146102e6578063978e70491461031b578063a87430ba1461034e578063ace417e0146104f7578063b3031ff01461053e578063be10451214610571578063c8c75647146105a4578063daf5248a146105d7578063ecb41054146107ad575b600080fd5b3480156100ca57600080fd5b506100f1600480360360208110156100e157600080fd5b5035600160a060020a03166107e0565b60408051918252519081900360200190f35b34801561010f57600080fd5b506101366004803603602081101561012657600080fd5b5035600160a060020a0316610802565b60405180806020018060200180602001858152602001848103845288818151815260200191508051906020019080838360005b83811015610181578181015183820152602001610169565b50505050905090810190601f1680156101ae5780820380516001836020036101000a031916815260200191505b50848103835287518152875160209182019189019080838360005b838110156101e15781810151838201526020016101c9565b50505050905090810190601f16801561020e5780820380516001836020036101000a031916815260200191505b50848103825286518152865160209182019188019080838360005b83811015610241578181015183820152602001610229565b50505050905090810190601f16801561026e5780820380516001836020036101000a031916815260200191505b5097505050505050505060405180910390f35b34801561028d57600080fd5b506102966109e5565b60408051602080825283518183015283519192839290830191858101910280838360005b838110156102d25781810151838201526020016102ba565b505050509050019250505060405180910390f35b3480156102f257600080fd5b506103196004803603602081101561030957600080fd5b5035600160a060020a0316610a48565b005b34801561032757600080fd5b506103196004803603602081101561033e57600080fd5b5035600160a060020a0316610a6b565b34801561035a57600080fd5b506103816004803603602081101561037157600080fd5b5035600160a060020a0316610a8e565b604051808060200180602001806020018a8152602001891515151581526020018881526020018781526020018681526020018515151515815260200184810384528d818151815260200191508051906020019080838360005b838110156103f25781810151838201526020016103da565b50505050905090810190601f16801561041f5780820380516001836020036101000a031916815260200191505b5084810383528c5181528c516020918201918e019080838360005b8381101561045257818101518382015260200161043a565b50505050905090810190601f16801561047f5780820380516001836020036101000a031916815260200191505b5084810382528b5181528b516020918201918d019080838360005b838110156104b257818101518382015260200161049a565b50505050905090810190601f1680156104df5780820380516001836020036101000a031916815260200191505b509c5050505050505050505050505060405180910390f35b34801561050357600080fd5b5061052a6004803603602081101561051a57600080fd5b5035600160a060020a0316610c88565b604080519115158252519081900360200190f35b34801561054a57600080fd5b506100f16004803603602081101561056157600080fd5b5035600160a060020a0316610cc1565b34801561057d57600080fd5b506100f16004803603602081101561059457600080fd5b5035600160a060020a0316610cdf565b3480156105b057600080fd5b50610319600480360360208110156105c757600080fd5b5035600160a060020a0316610cfd565b3480156105e357600080fd5b50610319600480360360c08110156105fa57600080fd5b600160a060020a03823516919081019060408101602082013564010000000081111561062557600080fd5b82018360208201111561063757600080fd5b8035906020019184600183028401116401000000008311171561065957600080fd5b91908080601f01602080910402602001604051908101604052809392919081815260200183838082843760009201919091525092959493602081019350359150506401000000008111156106ac57600080fd5b8201836020820111156106be57600080fd5b803590602001918460018302840111640100000000831117156106e057600080fd5b91908080601f016020809104026020016040519081016040528093929190818152602001838380828437600092019190915250929594936020810193503591505064010000000081111561073357600080fd5b82018360208201111561074557600080fd5b8035906020019184600183028401116401000000008311171561076757600080fd5b91908080601f0160208091040260200160405190810160405280939291908181526020018383808284376000920191909152509295505082359350505060200135610d24565b3480156107b957600080fd5b5061052a600480360360208110156107d057600080fd5b5035600160a060020a0316611029565b600160a060020a0381166000908152602081905260409020600601545b919050565b600160a060020a03811660009081526020818152604080832060038101548154835160026001808416156101000260001901909316819004601f81018890048802830188019096528582526060978897889791969594860194928601939186918301828280156108b35780601f10610888576101008083540402835291602001916108b3565b820191906000526020600020905b81548152906001019060200180831161089657829003601f168201915b5050865460408051602060026001851615610100026000190190941693909304601f8101849004840282018401909252818152959950889450925084019050828280156109415780601f1061091657610100808354040283529160200191610941565b820191906000526020600020905b81548152906001019060200180831161092457829003601f168201915b5050855460408051602060026001851615610100026000190190941693909304601f8101849004840282018401909252818152959850879450925084019050828280156109cf5780601f106109a4576101008083540402835291602001916109cf565b820191906000526020600020905b8154815290600101906020018083116109b257829003601f168201915b5050505050915093509350935093509193509193565b60606001805480602002602001604051908101604052809291908181526020018280548015610a3d57602002820191906000526020600020905b8154600160a060020a03168152600190910190602001808311610a1f575b505050505090505b90565b600160a060020a0316600090815260208190526040902060060180546001019055565b600160a060020a0316600090815260208190526040902060070180546001019055565b6000602081815291815260409081902080548251601f600260001961010060018616150201909316929092049182018590048502810185019093528083529092839190830182828015610b225780601f10610af757610100808354040283529160200191610b22565b820191906000526020600020905b815481529060010190602001808311610b0557829003601f168201915b505050505090806001018054600181600116156101000203166002900480601f016020809104026020016040519081016040528092919081815260200182805460018160011615610100020316600290048015610bc05780601f10610b9557610100808354040283529160200191610bc0565b820191906000526020600020905b815481529060010190602001808311610ba357829003601f168201915b50505060028085018054604080516020601f6000196101006001871615020190941695909504928301859004850281018501909152818152959695945090925090830182828015610c525780601f10610c2757610100808354040283529160200191610c52565b820191906000526020600020905b815481529060010190602001808311610c3557829003601f168201915b505050600384015460048501546005860154600687015460078801546008909801549697939660ff938416965091945092911689565b600160a060020a03811660009081526020819052604081206004015460ff16151560011415610cb9575060016107fd565b5060006107fd565b600160a060020a031660009081526020819052604090206007015490565b600160a060020a031660009081526020819052604090206005015490565b600160a060020a03166000908152602081905260409020600401805460ff19166001179055565b600160a060020a0386166000908152602081905260409020600881015487919060ff1615610ec757600160a060020a038216600090815260208190526040812090610d6f828261105a565b610d7d60018301600061105a565b610d8b60028301600061105a565b5060006003820181905560048201805460ff1990811690915560058301829055600683018290556007830182905560089092018054909216909155604080516101208101825289815260208082018a9052818301899052606082018890526080820184905260a0820187905260c0820184905260e082018490526001610100830152600160a060020a038616845283815291909220825180519192610e35928492909101906110a1565b506020828101518051610e4e92600185019201906110a1565b5060408201518051610e6a9160028401916020909101906110a1565b5060608201516003820155608082015160048201805491151560ff1992831617905560a0830151600583015560c0830151600683015560e0830151600783015561010090920151600890910180549115159190921617905561101f565b604080516101208101825288815260208082018990528183018890526060820187905260006080830181905260a0830187905260c0830181905260e083018190526001610100840152600160a060020a0386168152808252929092208151805192939192610f3892849201906110a1565b506020828101518051610f5192600185019201906110a1565b5060408201518051610f6d9160028401916020909101906110a1565b5060608201516003820155608082015160048201805491151560ff1992831617905560a0830151600583015560c0830151600683015560e083015160078301556101009092015160089091018054911515919092161790556001805480820182556000919091527fb10e2d527612073b26eecdfd717e6a320cf44b4afac2b0732d9fcbe2b7fa0cf6018054600160a060020a03841673ffffffffffffffffffffffffffffffffffffffff199091161790555b5050505050505050565b600160a060020a03811660009081526020819052604081206008015460ff16151560011415610cb9575060016107fd565b50805460018160011615610100020316600290046000825580601f10611080575061109e565b601f01602090049060005260206000209081019061109e919061111f565b50565b828054600181600116156101000203166002900490600052602060002090601f016020900481019282601f106110e257805160ff191683800117855561110f565b8280016001018555821561110f579182015b8281111561110f5782518255916020019190600101906110f4565b5061111b92915061111f565b5090565b610a4591905b8082111561111b576000815560010161112556fea165627a7a7230582064e148a7a91bca49e64d09eb9e45bf3d2b681cf713dd15d3321c60f0dd73e28a0029",
  "source": "pragma solidity ^0.5.0;\n\ncontract Users{\n\n    struct User {\n        string firstName;\n        string secondName;\n        string email;\n        int age;\n        bool verified;\n        int personalDataScore;\n        int adsPurchased;\n        int numAdsViewed;\n        bool set; // This boolean is used to differentiate between unset and zero struct values\n    }   \n\n    mapping(address => User) public users;\n\n\n    // list of all the addresses\n    address[] addressArray;\n\n\n    event UserMade(\n        string name\n    );\n\n\n    // function to check if an Ethereum address already exists in the system\n    function doesUserExist(address adr) public view returns (bool)\n    {\n        if(users[adr].set == true)\n        {\n            return true;\n        }\n        else\n        {\n            return false;\n        }\n    }\n\n    function isUserVerified(address adr) public view returns (bool)\n    {\n        if(users[adr].verified == true)\n        {\n            return true;\n        }\n        else\n        {\n            return false;\n        }\n    }\n\n    // sets verified\n    function setVerified(address adr) public \n    {\n        users[adr].verified = true;\n    }\n\n\n\n    function createUser(address _address, string memory _firstName, string memory _secondName, string memory _email, int _age, int score) public \n    {\n    \n\n        address _userAddress = _address;\n\n        // Storage for list of users\n        User storage user = users[_userAddress];\n\n        // if user already exists, delete the user \n        if(user.set)\n        {\n            delete(users[_userAddress]);\n            //Store the 'updated' user\n            users[_userAddress] = User({\n                firstName: _firstName,\n                secondName: _secondName,\n                email: _email,\n                age: _age,\n                verified: false,\n                personalDataScore: score,\n                adsPurchased: 0,\n                numAdsViewed: 0,\n                set: true\n            });\n        }\n        else\n        {\n            //Store the user\n            users[_userAddress] = User({\n                firstName: _firstName,\n                secondName: _secondName,\n                email: _email,\n                age: _age,\n                verified: false,\n                personalDataScore: score,\n                adsPurchased: 0,\n                numAdsViewed: 0,\n                set: true\n            });\n            // add to array\n            addressArray.push(_userAddress);\n        }\n\n    }\n\n    function getAddressList() public view returns (address[] memory)\n    {\n        return addressArray;\n    }\n\n    function getUserInfo(address _address) public view returns(string memory firstName, string memory secondName, string memory email, int age)\n    {\n        return (\n            users[_address].firstName,\n            users[_address].secondName,\n            users[_address].email,\n            users[_address].age\n        );\n    }\n\n    function getPersonalDataScore(address _address) public view returns(int)\n    {\n        return users[_address].personalDataScore;\n    }\n\n\n    // get the total number of ads purchased\n    function getNumAdsPurchased(address _address) public view returns(int)\n    {\n        return users[_address].adsPurchased;\n    }\n\n    // return the number of ads viewed for a given seller\n    function getNumAdsViewed(address _address) public view returns(int)\n    {   \n        return users[_address].numAdsViewed;\n    }\n\n    // increment the number of ads viewed of a given seller\n    function incrementNumAdsViewed(address _address) public\n    {\n        users[_address].numAdsViewed += 1; \n    }\n\n    // increment the number of ads purchased for a given seller\n    function incrementNumAdsPurchased(address _address) public\n    {\n        users[_address].adsPurchased += 1; \n    }\n}",
  "sourcePath": "/Users/christianjohnston/Desktop/Next/contracts/Users.sol",
  "compiler": {
    "name": "solc",
    "version": "0.5.0+commit.1d4f565a.Emscripten.clang"
  },
  "schemaVersion": "3.0.1",
  "updatedAt": "2019-04-30T10:28:17.470Z",
  "devdoc": {
    "methods": {}
  },
  "userdoc": {
    "methods": {}
  }
}