{
  "contractName": "Verify",
  "abi": [
    {
      "constant": true,
      "inputs": [
        {
          "name": "hashedMessage",
          "type": "bytes32"
        },
        {
          "name": "v",
          "type": "uint8"
        },
        {
          "name": "r",
          "type": "bytes32"
        },
        {
          "name": "s",
          "type": "bytes32"
        }
      ],
      "name": "verify",
      "outputs": [
        {
          "name": "",
          "type": "address"
        }
      ],
      "payable": false,
      "stateMutability": "pure",
      "type": "function",
      "signature": "0xf1835db7"
    }
  ],
  "bytecode": "0x608060405234801561001057600080fd5b506101ea806100206000396000f3fe6080604052600436106100405763ffffffff7c0100000000000000000000000000000000000000000000000000000000600035041663f1835db78114610045575b600080fd5b34801561005157600080fd5b506100846004803603608081101561006857600080fd5b5080359060ff60208201351690604081013590606001356100ad565b6040805173ffffffffffffffffffffffffffffffffffffffff9092168252519081900360200190f35b604080518082018252601c8082527f19457468657265756d205369676e6564204d6573736167653a0a33320000000060208084019182529351600094859385938b939092019182918083835b602083106101185780518252601f1990920191602091820191016100f9565b51815160209384036101000a600019018019909216911617905292019384525060408051808503815284830180835281519184019190912060009182905282860180845281905260ff8d166060870152608086018c905260a086018b90529151919650945060019360c08082019450601f19830192918290030190855afa1580156101a7573d6000803e3d6000fd5b5050604051601f190151999850505050505050505056fea165627a7a723058203f0e16e28707036ae9ce68ec3160c621b094e6910853ecfa54852c22552254970029",
  "source": "pragma solidity ^0.5.0;\n\ncontract Verify {\n\n    function verify(bytes32 hashedMessage, uint8 v, bytes32 r, bytes32 s) public pure returns (address) {\n        bytes memory prefix = \"\\x19Ethereum Signed Message:\\n32\";\n        bytes32 prefixedHash = keccak256(abi.encodePacked(prefix, hashedMessage));\n        address signer = ecrecover(prefixedHash, v, r, s);\n        return signer;\n    }\n}",
  "sourcePath": "/Users/christianjohnston/Desktop/Next/contracts/Verify.sol",
  "compiler": {
    "name": "solc",
    "version": "0.5.0+commit.1d4f565a.Emscripten.clang"
  },
  "schemaVersion": "3.0.1",
  "updatedAt": "2019-04-30T10:28:17.447Z",
  "devdoc": {
    "methods": {}
  },
  "userdoc": {
    "methods": {}
  }
}